:100000000C943A000C9457000C9457000C94570031
:100010000C9457000C9457000C9457000C94570004
:100020000C9457000C9457000C9457000C945700F4
:100030000C9457000C9457000C9457000C945700E4
:100040000C9457000C9457000C9457000C945700D4
:100050000C9457000C9457000C9457000C945700C4
:100060000C9457000C9457000C9457000C945700B4
:100070000C94570011241FBECFEFD4E0DEBFCDBFDC
:1000800011E0A0E0B1E0E6EDF5E002C005900D92D0
:10009000AE30B107D9F721E0AEE0B1E001C01D926A
:1000A000AA31B207E1F70E9430020C94E9020C94E5
:1000B00000009C01FC01FF2795A1832F80958923D7
:1000C00085A308959C01FC01FF2784A1832B84A3B1
:1000D00095A1892F832B85A381E0089580E090E48A
:1000E0000E94620080E090E20E94620080E090E165
:1000F0000E94620080E098E00E94620080E094E04C
:100100000E94620080E092E00E94620080E091E044
:100110000E94620083E090E40E94620080E090E828
:100120000E94620083E090E10E94620083E090E818
:100130000E94620083E090E20C946200CF93DF9310
:10014000C0E0D0E00E944D0183E00E949101811146
:100150003CC081E00E949101811137C04F9B03C0D8
:100160000E946E0032C080E090E2CD2BF1F40E943C
:10017000590080E090E80E94590080E090E10E94E0
:10018000590080E098E00E94590080E094E00E94CD
:10019000590080E092E00E945900449A83E090E880
:1001A0000E945900C1E0D0E0CDCF0E9459002F9AA3
:1001B0002C9A2B9A2A9A80E092E00E94590083E0C0
:1001C00090E10E945900479ABBCFDF91CF910C94E8
:1001D0006E0080E098E00E94590080E094E00E9468
:1001E000590080E092E00E94590080E090E80E946F
:1001F000590083E090E10E94590083E090E80C945C
:10020000590080E098E00E94590080E094E00E944C
:10021000590080E090E80E94590083E090E10E943C
:10022000590083E090E80C9459003A9A5798089541
:100230004F9B02C0429A089542980895E1E6F0E08B
:1002400080E880831082A89584B7877F84BFE0E62A
:10025000F0E080818861808310820895BC01109253
:10026000800085E0809381001092820084EF91E00D
:100270000E949F0280E090E024E83EE140E050E0F0
:100280000E94860228EE33E040E050E00E94C70260
:1002900030930F0120930E01089580910E019091EB
:1002A0000F01209184003091850028173907C8F389
:1002B000109285001092840008956230710519F142
:1002C00070F46130710559F5FC01FF2724A1392F25
:1002D0003095922F932394A385A183231DC063306F
:1002E000710541F064307105D1F4FC01FF2784A150
:1002F000892B0FC0FC01FF2784A1892B84A385A132
:100300009095892309C0FC01FF2784A1292F2095FE
:10031000822384A385A1892B85A381E0089580E0B1
:100320000895E82FF0E0EE0FFF1FE05FFE4F8081A1
:10033000882321F0918181E0892702C080E090E04C
:1003400081700895E82FF0E0EE0FFF1FE05FFE4F91
:100350008081811102C0818102C080E090E08170C3
:100360000895E82FF0E0EE0FFF1FE05FFE4F808161
:100370000895E82FF0E0EE0FFF1FE05FFE4F908141
:1003800081E0892708957F928F929F92AF92BF92CA
:10039000CF92DF92EF92FF920F931F93CF93DF9351
:1003A000C0E1D1E053E0C52E51E0D52E66E0762EB7
:1003B00088818983F601019111916F015801BB2455
:1003C000F50124A1E12EFF2485A190E08E219F213B
:1003D00030E02E213F21232B31F0892B51F433E0E3
:1003E000832E912C0DC0892B41F488248394912C69
:1003F00007C094E0892E912C03C082E0882E912CB6
:1004000064E070E0C8010E945D0162E070E0C80134
:100410000E945D01872D8A95F1F7F50183A190E097
:10042000E822F92281E0EF2809F080E08883B40116
:10043000C8010E945D012296F1E0CA31DF0709F090
:10044000B7CFDF91CF911F910F91FF90EF90DF9089
:10045000CF90BF90AF909F908F907F900895089518
:10046000CF93DF9300D01F92CDB7DEB70E941E015D
:100470000E946E0084EF91E00E942E010E941501FF
:100480000E942F028091000190910101A091020130
:1004900089839A83AB83F12C03E010E00E944D0125
:1004A0000E94C30181E00E949101882349F00E94CB
:1004B0006E008F2D90E00196B8010E94B302F82ED5
:1004C00083E00E949101882349F00E946E008F2DE5
:1004D00090E00296B8010E94B302F82EE1E0F0E04D
:1004E000EC0FFD1FEF0DF11D8081803529F40E9476
:1004F000C3010E949E00D2CF823519F40E94E90008
:10050000CDCF833559F60E940101C8CFEE27FF27D2
:10051000AA27BB2708C0A20FB31FE41FF51F220F95
:10052000331F441F551F969587957795679598F3C8
:100530007040A9F7009799F7BD01CF010895AA1B54
:10054000BB1B51E107C0AA1FBB1FA617B70710F0BE
:10055000A61BB70B881F991F5A95A9F780959095F0
:10056000BC01CD01089597FB072E16F4009407D027
:1005700077FD09D00E949F0207FC05D03EF49095BC
:1005800081959F4F0895709561957F4F0895A1E2E1
:100590001A2EAA1BBB1BFD010DC0AA1FBB1FEE1FFD
:1005A000FF1FA217B307E407F50720F0A21BB30B48
:1005B000E40BF50B661F771F881F991F1A9469F7C4
:1005C00060957095809590959B01AC01BD01CF0120
:0605D0000895F894FFCF2E
:0E05D6005250530380034003200080031000A6
:00000001FF
