:100000000C943A000C9457000C9457000C94570031
:100010000C9457000C9457000C9457000C94570004
:100020000C9457000C9457000C9457000C945700F4
:100030000C9457000C9457000C9457000C945700E4
:100040000C9457000C9457000C9457000C945700D4
:100050000C9457000C9457000C9457000C945700C4
:100060000C9457000C9457000C9457000C945700B4
:100070000C94570011241FBECFEFD4E0DEBFCDBFDC
:1000800013E0A0E0B1E0E0E3FFE002C005900D92D4
:10009000A636B107D9F723E0A6E6B3E001C01D926A
:1000A000AB37B207E1F70E9403070C9496070C9454
:1000B00000003A9A579808954F9B02C0429AFCCF8D
:1000C0004298FACFCF93DF9300D01F92CDB7DEB71F
:1000D0008091310190913201A091330189839A83FB
:1000E000AB8300E010E083E0C82ED12C0E94030116
:1000F0000E94790181E00E944701E12EF12C8111DB
:1001000002C0013029F40E94FB01C70101960BC017
:1001100083E00E944701811102C0023049F40E942D
:10012000FB01C7010296B6010E945107182F00E09B
:10013000E1E0F0E0EC0FFD1FE10FF11D8081803563
:1001400019F40E942B0209C0823519F40E94710231
:1001500004C0833559F60E94AD02082FC7CF0E9414
:10016000D4000E94FB0184EF91E00E94E4000E9411
:1001700059000E94E5010C940A03CF93DF9300D04D
:10018000CDB7DEB70E9415030E94380389E5898345
:100190008EE48A8362E0CE0101960E946B030F9089
:1001A0000F90DF91CF910895E1E6F0E080E8808341
:1001B0001082A89584B7877F84BFE0E6F0E0808155
:1001C0008861808310820895BC011092800085E0D0
:1001D000809381001092820084EF91E00E943D079D
:1001E00080E090E024E83EE140E050E00E942407F7
:1001F00028EE33E040E050E00E946507309367034B
:10020000209366030895809166039091670320917F
:1002100084003091850028173907C8F310928500B3
:100220001092840008956230710519F170F4613004
:10023000710559F5FC01FF2724A1392F3095922F24
:10024000932394A385A183231DC06330710541F0DE
:1002500064307105D1F4FC01FF2784A1892B0FC004
:10026000FC01FF2784A1892B84A385A19095892374
:1002700009C0FC01FF2784A1292F2095822384A394
:1002800085A1892B85A381E0089580E00895E82F5A
:10029000F0E0EE0FFF1FE859FC4F8081882321F02A
:1002A000918181E0892702C080E090E0817008950B
:1002B000E82FF0E0EE0FFF1FE859FC4F808181111D
:1002C00002C0818102C080E090E081700895E82F33
:1002D000F0E0EE0FFF1FE859FC4F80810895E82FF2
:1002E000F0E0EE0FFF1FE859FC4F908181E0892775
:1002F00008957F928F929F92AF92BF92CF92DF929A
:10030000EF92FF920F931F93CF93DF93C8E6D3E052
:1003100054E3C52E51E0D52E66E0762E8881898380
:10032000F601019111916F015801BB24F50124A13F
:10033000E12EFF2485A190E08E219F2130E02E2127
:100340003F21232B31F0892B51F433E0832E912C64
:100350000DC0892B41F488248394912C07C094E02C
:10036000892E912C03C082E0882E912C64E070E0ED
:10037000C8010E94130162E070E0C8010E941301ED
:10038000872D8A95F1F7F50183A190E0E822F92203
:1003900081E0EF2809F080E08883B401C8010E9461
:1003A00013012296F3E0C237DF0709F0B7CFDF91E0
:1003B000CF911F910F91FF90EF90DF90CF90BF9062
:1003C000AF909F908F907F90089508959C01FC01BD
:1003D000FF2795A1832F8095892385A308959C01EC
:1003E000FC01FF2784A1832B84A395A1892F832B54
:1003F00085A381E0089580E090E40E94EF0180E011
:1004000090E20E94EF0180E090E10E94EF0180E025
:1004100098E00E94EF0180E094E00E94EF0180E00C
:1004200092E00E94EF0180E091E00E94EF0183E002
:1004300090E40E94EF0180E090E80E94EF0183E0E9
:1004400090E10E94EF0183E090E80E94EF0183E0D9
:1004500090E20C94EF01CF93DF93C0E0D0E00E94D4
:1004600003010E94FB010E94790183E00E94470181
:10047000811131C081E00E94470181112EC080E0CE
:1004800090E2CD2BE9F40E94E60180E090E80E9422
:10049000E60180E090E10E94E60180E098E00E94A1
:1004A000E60180E094E00E94E60180E092E00E9494
:1004B000E60183E090E80E94E601C1E0D0E0CFCF02
:1004C0000E94E60180E092E00E94E60183E090E174
:1004D0000E94E601C2CF81E001C082E0DF91CF91AE
:1004E0000895CF93DF93C0E0D0E00E9403010E9403
:1004F000FB010E94790183E00E944701811127C01E
:1005000081E00E944701811124C0CD2B99F480E045
:1005100090E10E94E60180E098E00E94E60180E020
:1005200094E00E94E60183E090E10E94E601C1E0D0
:10053000D0E0DBCF80E098E00E94E60180E090E828
:100540000E94E60183E090E80E94E601CCCF81E0C2
:1005500001C082E0DF91CF910895CF93DF93C0E097
:10056000D0E00E9403010E94FB010E94790183E018
:100570000E944701811148C081E00E94470181111A
:1005800045C02097D9F480E090E20E94E60180E027
:1005900094E00E94E60180E092E00E94E60180E0A3
:1005A00091E00E94E60183E090E40E94E60183E08E
:1005B00090E20E94E601C1E0D0E0D3CF2197B9F4E8
:1005C00080E090E10E94E60180E094E00E94E60174
:1005D00080E092E00E94E60180E090E80E94E6015F
:1005E00083E090E80E94E601C2E0D0E0BACF80E06C
:1005F00098E00E94E60180E094E00E94E60183E03A
:1006000090E10E94E601ABCF81E001C082E0DF9182
:10061000CF91089584EF91E00E94F3068DE691E07A
:100620000E9472068AE00C9462068EE391E00E94BA
:10063000530681E090E00E9468060E9403010E9438
:10064000790183E00E94470181110C94570581E0F4
:100650000E9447018111F9CF82E00E944701811178
:10066000F4CF0E9447018111F0CF0E947706E5CFB9
:100670008DE591E00E94530681E090E00E946806BB
:100680000E9403010E94790183E00E9447018111C9
:100690000C94570581E00E9447018111F9CF82E057
:1006A0000E9447018111F4CF0E9447018111F0CFD0
:1006B0000E947706E5CFCF93DF9300D0CDB7DEB7AA
:1006C00089831A82CE0101960E9453060F900F90E3
:1006D000DF91CF910895CF92DF92EF92FF920F9327
:1006E0001F93CF936C01C0E0E62EF12C0E94030112
:1006F0000E9477060E94790181E00E9447010C2F39
:1007000010E0882329F00E94FB01C80101960BC06C
:1007100083E00E944701882351F00E94FB01C80139
:1007200001978E0D9F1DB7010E945107C82F8601AA
:100730000C0F111DF80180810E945B0384E00E9470
:100740004701882399F20E94FB01F8018081CF9133
:100750001F910F91FF90EF90DF90CF90089585301B
:1007600098F4673088F421E030E001C0220F6A95E8
:10077000EAF7E82FF0E0ED58FC4F922F909580813A
:1007800089234111822B80830895853080F467305E
:1007900070F421E030E001C0220F6A95EAF7E82FFB
:1007A000F0E0ED58FC4F8081282381E009F480E0DF
:1007B000089560917203E62FF0E0ED58FC4F8081C0
:1007C0000E942704809172038F5F853018F4809314
:1007D00072030895109272030895E3E7F3E0108224
:1007E000118212821382148208950E9405040C94CF
:1007F000ED039C01FC01FF2784A1832B84A395A119
:10080000892F832B85A381E00895CF93DF93C8E5DB
:10081000D3E0899199910E94F90383E0C636D80705
:10082000C1F783E090E40E94F90380E090E80E9421
:10083000F90383E090E10E94F90383E090E80E94CD
:10084000F90383E090E2DF91CF910C94F903E091FA
:100850007803F0E0EE0FFF1FE25BFC4F2081318157
:10086000F901FF2795A1932B95A3E8E5F3E097E025
:1008700020813181D901BB2795962C91959780FFD6
:1008800003C03095232301C0232B95962C93869586
:10089000915032969111ECCFE62FF0E0EE0FFF1F52
:1008A000E25BFC4F80819181FC01FF2785A190953F
:1008B000892385A3609378030895009789F0FC014C
:1008C0002381621B67FD09C0062E000C770B248173
:1008D00030E081E0621773070CF080E081700895CA
:1008E00080E00895CF93DF93FC01892B79F181811A
:1008F000481760F59281291748F59381A62FA91B07
:10090000A7FD24C00A2E000CBB0BC481D0E0AC179D
:10091000BD07E4F4622F0E940A07480F858190E02A
:10092000BD010E9413070696242F2695269526952D
:10093000E80FF91FE20FF11D808190E0477002C0BF
:10094000959587954A95E2F7817001C080E0DF9127
:10095000CF910895692F0C94C50341E0611101C046
:1009600040E0692F0C94AF030C94AD045F926F923A
:100970007F928F929F92AF92BF92CF92DF92EF922F
:10098000FF920F931F93CF93DF93562E872E942EB3
:100990005C01E62EF72EC62F660FDD0BC81BD109B2
:1009A00087FDD395072F770F110B091B110997FDB1
:1009B0001395D7FF03C077247A9402C077247394E9
:1009C00017FF03C066246A9402C066246394D7FFAD
:1009D00003C0D195C195D10917FF03C011950195A9
:1009E0001109C017D107A4F06E01D594C794F92E50
:1009F000A51411F1692D8A2D9F2D0E94AD04C01AF6
:100A0000D10AD7FE03C0CC0EDD1EF60CA70CF0CF2A
:100A10006801D594C794E82EB81471F0692D8E2D15
:100A20009B2D0E94AD04CC1ADD0AD7FE03C0C00E78
:100A3000D11EE70CB60CF0CF692DC701DF91CF9125
:100A40001F910F91FF90EF90DF90CF90BF90AF90EC
:100A50009F908F907F906F905F900C94AD04FF9269
:100A60000F931F93CF93DF93D82FF92E162FC72FF5
:100A7000042F792F0E94B604402F6D2F7C2F8D2FCD
:100A80009F2D0E94B604402F612F7C2F812F9F2D18
:100A90000E94B604402F612F7C2F8D2F9C2F0E9427
:100AA000B604DF91CF911F910F91FF9008950E949E
:100AB000ED03E0E0F1E0118A14860895DF92EF92F1
:100AC000FF920F931F93CF93DF93D82E7B01162FA6
:100AD0000F2D8091020190910301D0E0019799F5CB
:100AE0000F2D0D1BE0910801F09109018181C0E0FB
:100AF000D817B8F48091080190910901FC01228176
:100B0000C21768F42C2F4D2F6D2D0E947204682F90
:100B10008E2D8C0F902F0E94AD04CF5FEBCFDF5F47
:100B2000DFCFE0910801F09109018281C81740F4FC
:100B300060E08E2D8C0F902F0E94AD04CF5FF1CF1F
:100B4000015030C0DF5F1E2D1D0FE0910801F091B4
:100B500009018181C0E0D817A8F480910801909123
:100B60000901FC012281C21768F72C2F4D2F6D2D32
:100B70000E947204682F812F9F2D9C0F0E94AD044C
:100B8000CF5FEBCFE0910801F09109018281C81796
:100B900040F460E0812F9F2D9C0F0E94AD04CF5F39
:100BA000F1CF1F5F812F902FDF91CF911F910F9178
:100BB000FF90EF90DF9008950F931F93CF938C01D8
:100BC000C0E0F80181918F01882341F00E945E0509
:100BD000BC01CF5F853014F477FFF3CF8C2FCF911A
:100BE0001F910F9108950F931F93CF93DF9310924E
:100BF0000C0140930D011092100100910801109119
:100C000009010115110509F449C09B01EC01F80126
:100C10008181609106017091070190E00E941307A5
:100C2000BC0180910A0190910B010E943D07CB010C
:100C30006AE070E00E94130790930F0180930E0109
:100C4000309305012093040140E250E0BE0181E1B0
:100C500091E00E9487078091000190910101019726
:100C6000E9F4FE0101900020E9F73197BF016C1B08
:100C70007D0BF80181818F5F0E940A0781502091CE
:100C80000201309103012130310511F095E001C0DE
:100C900097E0981718F48EEF80931001DF91CF91B1
:100CA0001F910F910895209102013091030121308D
:100CB000310511F070E001C076E04FEF60E00E9476
:100CC000F305089590E0909307018093060108953D
:100CD0009093010180930001089590930301809304
:100CE000020108959093090180930801089580916D
:100CF000790390917A03019690937A038093790314
:100D000020910E0130910F018217930708F469C0FA
:100D100010927A0310927903E0910C01F0E0E05018
:100D2000FF4F818981110AC080910D01823008F442
:100D300058C0815080930D0110920C0180910C01DC
:100D400090E0FC01E050FF4F2189222309F449C0C3
:100D50004091000150910101209110014115510570
:100D600021F04130510599F024C0211122C0609139
:100D70000401709105018F5E9E4F0E94DC0590E09A
:100D8000019790910C01890F80930C0112C0609122
:100D9000040170910501409102015091030141301D
:100DA000510511F4720F01C0621B8F5E9E4F0E94AD
:100DB000DC05809110018F5F80931001082E000CDC
:100DC000990BE0910801F0910901218130E0281789
:100DD00039073CF41092100180910C018F5F8093D1
:100DE0000C010C94D903CF93DF93C0E0D1E09B8733
:100DF0008A870E94F50384E190E09F838E83DF91D0
:100E0000CF910C9457050E94AF000E94BD0080E076
:100E100090E00895002480FD060E660F11F086957F
:100E2000D1F7802D08950024552704C0080E591FBE
:100E3000880F991F009729F076956795B8F371058B
:100E4000B9F7802D952F0895EE27FF27AA27BB27F6
:100E500008C0A20FB31FE41FF51F220F331F441F4A
:100E6000551F969587957795679598F37040A9F7E4
:100E7000009799F7BD01CF010895AA1BBB1B51E153
:100E800007C0AA1FBB1FA617B70710F0A61BB70BFA
:100E9000881F991F5A95A9F780959095BC01CD019F
:100EA000089597FB072E16F4009407D077FD09D01C
:100EB0000E943D0707FC05D03EF4909581959F4F19
:100EC0000895709561957F4F0895A1E21A2EAA1B8F
:100ED000BB1BFD010DC0AA1FBB1FEE1FFF1FA217EA
:100EE000B307E407F50720F0A21BB30BE40BF50BE7
:100EF000661F771F881F991F1A9469F76095709570
:100F0000809590959B01AC01BD01CF010895FB0137
:100F1000DC014150504048F001900D920020C9F78B
:100F200001C01D9241505040E0F70895F894FFCF62
:100F3000000000000000140000000000000000009D
:100F400000000000000000000000000000000000A1
:100F50000000000000000000000000000000000091
:100F60000052505303800340032000800310576554
:100F70006C636F6D6520746F2050535221204D6F4C
:100F8000766520746F2073746172740000506C6118
:100F900079207475746F7269616C3F0000010507F8
:100FA000205F050000000000C6186380014A290088
:100FB00000004A7DF59502C417471F0163222232C3
:100FC00006261551930586080000008808210802AE
:100FD0008220848800805457090080904F080000C8
:100FE0000060880000800F00000000008C010022DB
:100FF0002202002EE63AA303C4104288032E424484
:10100000C4072E4207A30388A9F411023F8407A353
:10101000032E8617A3033F424408012E4617A3035D
:101020002E460FA303C018600C00C018608800880B
:1010300088200802007CF0010082208888002E426F
:101040004400012E425BAB0344C51F63042FC61747
:10105000E3032E8610A2032FC618E3033F8417C2B2
:10106000073F841742002E861EA30731C61F630464
:101070008E10428803104218A30331955152042167
:101080008410C20771D71A630471D61C63042EC67C
:1010900018A3032FC61742002EC65893052FC61754
:1010A00063042E0607A3039F1042080131C618A34C
:1010B0000331C618150131C65AAB02312AA26204A7
:1010C000312A4208011F2222C207278410C20120B0
:1010D000088220000E218490034445000000000097
:1010E00000C00782200000000038E8A30721B419DF
:1010F000E30300B810A20310DA1CA30700B8F883BA
:10110000034C8A238400C0C7E8A10321B4196304F7
:101110000418428803083084920121A4324A0286CE
:101120001042880300AC5A630400B419630400B889
:1011300018A30300BCF8420000D8EC210400B41945
:10114000420000B8E0E003421C21240300C418B3AD
:101150000500C418150100C45AAB020044455404EC
:1011600000C4E8A103007C44C4078810410802843D
:1011700010420801821044880000888A0000034061
:1011800000800310038003200040002000100008AE
:0611900000040002000152
:00000001FF
