:100000000C943A000C9457000C9457000C94570031
:100010000C9457000C9457000C9457000C94570004
:100020000C9457000C9457000C9457000C945700F4
:100030000C9457000C9457000C9457000C945700E4
:100040000C9457000C9457000C9457000C945700D4
:100050000C9457000C9457000C9457000C945700C4
:100060000C9457000C9457000C9457000C945700B4
:100070000C94570011241FBECFEFD4E0DEBFCDBFDC
:1000800011E0A0E0B1E0ECEAF6E002C005900D92CC
:10009000AE30B107D9F721E0AEE0B1E001C01D926A
:1000A000AA31B207E1F70E9498020C9454030C9411
:1000B00000003A9A579808954F9B02C0429AFCCF8D
:1000C0004298FACFE1E6F0E080E880831082A895BC
:1000D00084B7877F84BFE0E6F0E080818861808319
:1000E00010820895BC011092800085E08093810009
:1000F0001092820084EF91E00E940A0380E090E079
:1001000024E83EE140E050E00E94F10228EE33E0B6
:1001100040E050E00E94320330930F0120930E0123
:10012000089580910E0190910F01209184003091EB
:10013000850028173907C8F31092850010928400B3
:1001400008956230710519F170F46130710559F547
:10015000FC01FF2724A1392F3095922F932394A3DC
:1001600085A183231DC06330710541F064307105A2
:10017000D1F4FC01FF2784A1892B0FC0FC01FF27CC
:1001800084A1892B84A385A19095892309C0FC01B2
:10019000FF2784A1292F2095822384A385A1892B61
:1001A00085A381E0089580E00895E82FF0E0EE0F48
:1001B000FF1FE05FFE4F8081882321F0918181E065
:1001C000892702C080E090E081700895E82FF0E078
:1001D000EE0FFF1FE05FFE4F8081811102C0818121
:1001E00002C080E090E081700895E82FF0E0EE0F0B
:1001F000FF1FE05FFE4F80810895E82FF0E0EE0FD3
:10020000FF1FE05FFE4F908181E0892708957F9274
:100210008F929F92AF92BF92CF92DF92EF92FF9216
:100220000F931F93CF93DF93C0E1D1E053E0C52E2E
:1002300051E0D52E66E0762E88818983F601019102
:1002400011916F015801BB24F50124A1E12EFF2477
:1002500085A190E08E219F2130E02E213F21232B8C
:1002600031F0892B51F433E0832E912C0DC0892B72
:1002700041F488248394912C07C094E0892E912C1A
:1002800003C082E0882E912C64E070E0C8010E94D7
:10029000A10062E070E0C8010E94A100872D8A954C
:1002A000F1F7F50183A190E0E822F92281E0EF283F
:1002B00009F080E08883B401C8010E94A100229661
:1002C000F1E0CA31DF0709F0B7CFDF91CF911F917D
:1002D0000F91FF90EF90DF90CF90BF90AF909F90E5
:1002E0008F907F90089508959C01FC01FF2795A1B0
:1002F000832F8095892385A308959C01FC01FF2706
:1003000084A1832B84A395A1892F832B85A381E0CE
:10031000089580E090E40E947D0180E090E20E94D8
:100320007D0180E090E10E947D0180E098E00E94E4
:100330007D0180E094E00E947D0180E092E00E94D7
:100340007D0180E091E00E947D0183E090E40E94C5
:100350007D0180E090E80E947D0183E090E10E94B1
:100360007D0183E090E80E947D0183E090E20C949F
:100370007D01CF93DF93C0E0D0E00E9491000E9406
:1003800089010E94070183E00E94D500811131C0DC
:1003900081E00E94D50081112EC080E090E2CD2B3B
:1003A000E9F40E94740180E090E80E94740180E00A
:1003B00090E10E94740180E098E00E94740180E066
:1003C00094E00E94740180E092E00E94740183E056
:1003D00090E80E947401C1E0D0E0CFCF0E94740188
:1003E00080E092E00E94740183E090E10E94740139
:1003F000C2CF81E001C082E0DF91CF910895CF9319
:10040000DF93C0E0D0E00E9491000E9489010E9429
:10041000070183E00E94D500811127C081E00E947E
:10042000D500811124C0CD2B99F480E090E10E9489
:10043000740180E098E00E94740180E094E00E94E2
:10044000740183E090E10E947401C1E0D0E0DBCF51
:1004500080E098E00E94740180E090E80E947401BE
:1004600083E090E80E947401CCCF81E001C082E07B
:10047000DF91CF910895CF93DF93C0E0D0E00E9449
:1004800091000E9489010E94070183E00E94D5002B
:10049000811148C081E00E94D500811145C020979C
:1004A000D9F480E090E20E94740180E094E00E9420
:1004B000740180E092E00E94740180E091E00E946B
:1004C000740183E090E40E94740183E090E20E9452
:1004D0007401C1E0D0E0D3CF2197B9F480E090E17E
:1004E0000E94740180E094E00E94740180E092E038
:1004F0000E94740180E090E80E94740183E090E81B
:100500000E947401C2E0D0E0BACF80E098E00E947F
:10051000740180E094E00E94740183E090E10E9405
:100520007401ABCF81E001C082E0DF91CF910895EB
:10053000CF93DF9300D01F92CDB7DEB70E94620049
:100540000E94890184EF91E00E9472000E9459008C
:100550000E9473018091000190910101A09102011C
:1005600089839A83AB8300E010E083E0C82ED12C0E
:100570000E9491000E94070181E00E94D500E12EB7
:10058000F12C811102C0013029F40E948901C701B8
:1005900001960BC083E00E94D500811102C0023099
:1005A00049F40E948901C7010296B6010E941E0308
:1005B000182F00E0E1E0F0E0EC0FFD1FE10FF11D6E
:1005C0008081803519F40E94B90109C0823519F47F
:1005D0000E94FF0104C0833559F60E943B02082F98
:1005E000C7CFEE27FF27AA27BB2708C0A20FB31F3C
:1005F000E41FF51F220F331F441F551F9695879543
:100600007795679598F37040A9F7009799F7BD0122
:10061000CF010895AA1BBB1B51E107C0AA1FBB1F36
:10062000A617B70710F0A61BB70B881F991F5A957E
:10063000A9F780959095BC01CD01089597FB072EF1
:1006400016F4009407D077FD09D00E940A0307FC36
:1006500005D03EF4909581959F4F089570956195D2
:100660007F4F0895A1E21A2EAA1BBB1BFD010DC0EE
:10067000AA1FBB1FEE1FFF1FA217B307E407F50752
:1006800020F0A21BB30BE40BF50B661F771F881F2E
:10069000991F1A9469F760957095809590959B01C4
:0C06A000AC01BD01CF010895F894FFCF1C
:0E06AC005250530380034003200080031000CF
:00000001FF
