:100000000C943A000C9457000C9457000C94570031
:100010000C9457000C9457000C9457000C94570004
:100020000C9457000C9457000C9457000C945700F4
:100030000C9457000C9457000C9457000C945700E4
:100040000C9457000C9457000C9457000C945700D4
:100050000C9457000C9457000C9457000C945700C4
:100060000C9457000C9457000C9457000C945700B4
:100070000C94570011241FBECFEFD4E0DEBFCDBFDC
:1000800013E0A0E0B1E0EAE1FFE002C005900D92CC
:10009000AE37B107D9F723E0AEE7B3E001C01D9258
:1000A000A339B207E1F70E94F8060C948B070C9471
:1000B00000003A9A579808954F9B02C0429AFCCF8D
:1000C0004298FACFCF93DF9300D01F92CDB7DEB71F
:1000D0008091310190913201A091330189839A83FB
:1000E000AB8300E010E083E0C82ED12C0E940B010E
:1000F0000E94810181E00E944F01E12EF12C8111CB
:1001000002C0013029F40E940302C70101960BC00E
:1001100083E00E944F01811102C0023049F40E9425
:100120000302C7010296B6010E944607182F00E09D
:10013000E1E0F0E0EC0FFD1FE10FF11D8081803563
:1001400019F40E94330209C0823519F40E94790221
:1001500004C0833559F60E94B502082FC7CF0E940C
:10016000DC000E94030284EF91E00E94EC000E94F8
:1001700059000E94ED010C941203CF93DF9300D03D
:10018000CDB7DEB784E391E00E941D0383E591E0E3
:100190000E941D0389E589838EE48A8362E0CE0193
:1001A00001960E944E03893511F40E9492030F902C
:1001B0000F90DF91CF910895E1E6F0E080E8808331
:1001C0001082A89584B7877F84BFE0E6F0E0808145
:1001D0008861808310820895BC011092800085E0C0
:1001E000809381001092820084EF91E00E94320798
:1001F00080E090E024E83EE140E050E00E941907F2
:1002000028EE33E040E050E00E945A0730937F032D
:1002100020937E03089580917E0390917F03209127
:1002200084003091850028173907C8F310928500A3
:100230001092840008956230710519F170F46130F4
:10024000710559F5FC01FF2724A1392F3095922F14
:10025000932394A385A183231DC06330710541F0CE
:1002600064307105D1F4FC01FF2784A1892B0FC0F4
:10027000FC01FF2784A1892B84A385A19095892364
:1002800009C0FC01FF2784A1292F2095822384A384
:1002900085A1892B85A381E0089580E00895E82F4A
:1002A000F0E0EE0FFF1FE058FC4F8081882321F023
:1002B000918181E0892702C080E090E081700895FB
:1002C000E82FF0E0EE0FFF1FE058FC4F8081811116
:1002D00002C0818102C080E090E081700895E82F23
:1002E000F0E0EE0FFF1FE058FC4F80810895E82FEB
:1002F000F0E0EE0FFF1FE058FC4F908181E089276E
:1003000008957F928F929F92AF92BF92CF92DF9289
:10031000EF92FF920F931F93CF93DF93C0E8D3E048
:1003200053E6C52E51E0D52E66E0762E888189836E
:10033000F601019111916F015801BB24F50124A12F
:10034000E12EFF2485A190E08E219F2130E02E2117
:100350003F21232B31F0892B51F433E0832E912C54
:100360000DC0892B41F488248394912C07C094E01C
:10037000892E912C03C082E0882E912C64E070E0DD
:10038000C8010E941B0162E070E0C8010E941B01CD
:10039000872D8A95F1F7F50183A190E0E822F922F3
:1003A00081E0EF2809F080E08883B401C8010E9451
:1003B0001B012296F3E0CA38DF0709F0B7CFDF91BF
:1003C000CF911F910F91FF90EF90DF90CF90BF9052
:1003D000AF909F908F907F90089508959C01FC01AD
:1003E000FF2795A1832F8095892385A308959C01DC
:1003F000FC01FF2784A1832B84A395A1892F832B44
:1004000085A381E0089580E090E40E94F70180E0F8
:1004100090E20E94F70180E090E10E94F70180E005
:1004200098E00E94F70180E094E00E94F70180E0EC
:1004300092E00E94F70180E091E00E94F70183E0E2
:1004400090E40E94F70180E090E80E94F70183E0C9
:1004500090E10E94F70183E090E80E94F70183E0B9
:1004600090E20C94F701CF93DF93C0E0D0E00E94BC
:100470000B010E9403020E94810183E00E944F0150
:10048000811131C081E00E944F0181112EC080E0B6
:1004900090E2CD2BE9F40E94EE0180E090E80E940A
:1004A000EE0180E090E10E94EE0180E098E00E9481
:1004B000EE0180E094E00E94EE0180E092E00E9474
:1004C000EE0183E090E80E94EE01C1E0D0E0CFCFE2
:1004D0000E94EE0180E092E00E94EE0183E090E154
:1004E0000E94EE01C2CF81E001C082E0DF91CF9196
:1004F0000895CF93DF93C0E0D0E00E940B010E94EB
:1005000003020E94810183E00E944F01811127C0F4
:1005100081E00E944F01811124C0CD2B99F480E02D
:1005200090E10E94EE0180E098E00E94EE0180E000
:1005300094E00E94EE0183E090E10E94EE01C1E0B0
:10054000D0E0DBCF80E098E00E94EE0180E090E810
:100550000E94EE0183E090E80E94EE01CCCF81E0A2
:1005600001C082E0DF91CF910895CF93DF93C0E087
:10057000D0E00E940B010E9403020E94810183E0EF
:100580000E944F01811148C081E00E944F018111FA
:1005900045C02097D9F480E090E20E94EE0180E00F
:1005A00094E00E94EE0180E092E00E94EE0180E083
:1005B00091E00E94EE0183E090E40E94EE0183E06E
:1005C00090E20E94EE01C1E0D0E0D3CF2197B9F4D0
:1005D00080E090E10E94EE0180E094E00E94EE0154
:1005E00080E092E00E94EE0180E090E80E94EE013F
:1005F00083E090E80E94EE01C2E0D0E0BACF80E054
:1006000098E00E94EE0180E094E00E94EE0183E019
:1006100090E10E94EE01ABCF81E001C082E0DF916A
:10062000CF91089584EF91E00E94E80684E891E07C
:100630000E9467068AE00C9457060E94480681E0F3
:1006400090E00E945D060E940B010E94810183E000
:100650000E944F0181110C944C0581E00E944F01D2
:100660008111F9CF82E00E944F018111F4CF0E94E5
:100670004F018111F0CF0E946C06E5CFCF93DF933D
:1006800000D0CDB7DEB789831A82CE0101960E94D1
:1006900048060F900F90DF91CF910895CF92DF928F
:1006A000EF92FF920F931F93CF936C01C0E0E62E61
:1006B000F12C0E940B010E946C060E94810181E0D6
:1006C0000E944F010C2F10E0882329F00E940302A2
:1006D000C80101960BC083E00E944F01882351F0AE
:1006E0000E940302C80101978E0D9F1DB7010E9451
:1006F0004607C82F86010C0F111DF80180810E944A
:100700003E0384E00E944F01882399F20E94030275
:10071000F8018081CF911F910F91FF90EF90DF90B2
:10072000CF9008958DE691E00E941D030E9479020A
:1007300083E791E00E941D030E9433028AE791E063
:100740000E941D030C94B502853098F4673088F43C
:1007500021E030E001C0220F6A95EAF7E82FF0E0CF
:10076000E557FC4F922F9095808189234111822B70
:1007700080830895853080F4673070F421E030E0A4
:1007800001C0220F6A95EAF7E82FF0E0E557FC4F29
:100790008081282381E009F480E0089560918A0334
:1007A000E62FF0E0E557FC4F80810E941C04809109
:1007B0008A038F5F853018F480938A03089510921E
:1007C0008A030895EBE8F3E010821182128213820B
:1007D000148208950E94FA030C94E2039C01FC0128
:1007E000FF2784A1832B84A395A1892F832B85A325
:1007F00081E00895CF93DF93CFE6D3E0899199917B
:100800000E94EE0383E0CD37D807C1F783E090E480
:100810000E94EE0380E090E80E94EE0383E090E106
:100820000E94EE0383E090E80E94EE0383E090E2F2
:10083000DF91CF910C94EE03E0919003F0E0EE0F86
:10084000FF1FEB59FC4F20813181F901FF2795A152
:10085000932B95A3EFE6F3E097E020813181D90156
:10086000BB2795962C91959780FF03C03095232345
:1008700001C0232B95962C93869591503296911119
:10088000ECCFE62FF0E0EE0FFF1FEB59FC4F80811D
:100890009181FC01FF2785A19095892385A3609311
:1008A00090030895009789F0FC012381621B67FD86
:1008B00009C0062E000C770B248130E081E062171E
:1008C00073070CF080E08170089580E00895CF9365
:1008D000DF93FC01892B79F18181481760F59281C2
:1008E000291748F59381A62FA91BA7FD24C00A2E1E
:1008F000000CBB0BC481D0E0AC17BD07E4F4622F41
:100900000E94FF06480F858190E0BD010E94080704
:100910000696242F269526952695E80FF91FE20FB7
:10092000F11D808190E0477002C0959587954A95AA
:10093000E2F7817001C080E0DF91CF910895692FC7
:100940000C94BA0341E0611101C040E0692F0C949E
:10095000A4030C94A2045F926F927F928F929F9255
:10096000AF92BF92CF92DF92EF92FF920F931F93BD
:10097000CF93DF93562E872E942E5C01E62EF72E12
:10098000C62F660FDD0BC81BD10987FDD395072F36
:10099000770F110B091B110997FD1395D7FF03C0A2
:1009A00077247A9402C07724739417FF03C06624D7
:1009B0006A9402C066246394D7FF03C0D195C195A1
:1009C000D10917FF03C0119501951109C017D1076F
:1009D000A4F06E01D594C794F92EA51411F1692DD8
:1009E0008A2D9F2D0E94A204C01AD10AD7FE03C0EF
:1009F000CC0EDD1EF60CA70CF0CF6801D594C79481
:100A0000E82EB81471F0692D8E2D9B2D0E94A20442
:100A1000CC1ADD0AD7FE03C0C00ED11EE70CB60CFF
:100A2000F0CF692DC701DF91CF911F910F91FF90FA
:100A3000EF90DF90CF90BF90AF909F908F907F907E
:100A40006F905F900C94A204FF920F931F93CF932B
:100A5000DF93D82FF92E162FC72F042F792F0E943E
:100A6000AB04402F6D2F7C2F8D2F9F2D0E94AB0448
:100A7000402F612F7C2F812F9F2D0E94AB04402F90
:100A8000612F7C2F8D2F9C2F0E94AB04DF91CF9183
:100A90001F910F91FF9008950E94E203E0E0F1E0C2
:100AA000118A14860895DF92EF92FF920F931F939D
:100AB000CF93DF93D82E7B01162F0F2D809102014B
:100AC00090910301D0E0019799F50F2D0D1BE09156
:100AD0000801F09109018181C0E0D817B8F4809134
:100AE000080190910901FC012281C21768F42C2FA2
:100AF0004D2F6D2D0E946704682F8E2D8C0F902F27
:100B00000E94A204CF5FEBCFDF5FDFCFE09108014F
:100B1000F09109018281C81740F460E08E2D8C0F9E
:100B2000902F0E94A204CF5FF1CF015030C0DF5F51
:100B30001E2D1D0FE0910801F09109018181C0E097
:100B4000D817A8F48091080190910901FC01228135
:100B5000C21768F72C2F4D2F6D2D0E946704682F48
:100B6000812F9F2D9C0F0E94A204CF5FEBCFE091BD
:100B70000801F09109018281C81740F460E0812FDB
:100B80009F2D9C0F0E94A204CF5FF1CF1F5F812F8A
:100B9000902FDF91CF911F910F91FF90EF90DF90F9
:100BA00008950F931F93CF938C01C0E0F8018191BA
:100BB0008F01882341F00E945305BC01CF5F85302F
:100BC00014F477FFF3CF8C2FCF911F910F910895DD
:100BD0000F931F93CF93DF9310920C0140930D015D
:100BE00010921001009108011091090101151105E1
:100BF00009F449C09B01EC01F80181816091060173
:100C00007091070190E00E940807BC0180910A01E1
:100C100090910B010E943207CB016AE070E00E94C4
:100C2000080790930F0180930E01309305012093E4
:100C3000040140E250E0BE0181E191E00E947C07A6
:100C400080910001909101010197E9F4FE0101906A
:100C50000020E9F73197BF016C1B7D0BF801818102
:100C60008F5F0E94FF0681502091020130910301A5
:100C70002130310511F095E001C097E0981718F484
:100C80008EEF80931001DF91CF911F910F91089506
:100C900020910201309103012130310511F070E003
:100CA00001C076E04FEF60E00E94E805089590E013
:100CB000909307018093060108959093010180931A
:100CC0000001089590930301809302010895909389
:100CD00009018093080108958091910390919203F6
:100CE0000196909392038093910320910E0130918D
:100CF0000F018217930708F469C0109292031092B3
:100D00009103E0910C01F0E0E050FF4F81898111E7
:100D10000AC080910D01823008F458C08150809340
:100D20000D0110920C0180910C0190E0FC01E0504B
:100D3000FF4F2189222309F449C0409100015091BD
:100D40000101209110014115510521F0413051055B
:100D500099F024C0211122C0609104017091050115
:100D60008F5E9E4F0E94D10590E0019790910C01FB
:100D7000890F80930C0112C06091040170910501EC
:100D800040910201509103014130510511F4720F5D
:100D900001C0621B8F5E9E4F0E94D10580911001A1
:100DA0008F5F80931001082E000C990BE0910801D1
:100DB000F0910901218130E0281739073CF41092A5
:100DC000100180910C018F5F80930C010C94CE0375
:100DD000CF93DF93C0E0D1E09B878A870E94EA032C
:100DE00084E190E09F838E83DF91CF910C944C053A
:100DF0000E94AF000E94BD0080E090E008950024B2
:100E000080FD060E660F11F08695D1F7802D0895AE
:100E10000024552704C0080E591F880F991F0097FA
:100E200029F076956795B8F37105B9F7802D952F60
:100E30000895EE27FF27AA27BB2708C0A20FB31FDC
:100E4000E41FF51F220F331F441F551F96958795EA
:100E50007795679598F37040A9F7009799F7BD01CA
:100E6000CF010895AA1BBB1B51E107C0AA1FBB1FDE
:100E7000A617B70710F0A61BB70B881F991F5A9526
:100E8000A9F780959095BC01CD01089597FB072E99
:100E900016F4009407D077FD09D00E94320707FCB2
:100EA00005D03EF4909581959F4F0895709561957A
:100EB0007F4F0895A1E21A2EAA1BBB1BFD010DC096
:100EC000AA1FBB1FEE1FFF1FA217B307E407F507FA
:100ED00020F0A21BB30BE40BF50B661F771F881FD6
:100EE000991F1A9469F760957095809590959B016C
:100EF000AC01BD01CF010895FB01DC014150504020
:100F000048F001900D920020C9F701C01D92415098
:0A0F10005040E0F70895F894FFCF79
:100F1A0000000000000014000000000000000000B3
:100F2A0000000000000000000000000000000000B7
:100F3A0000000000000000000000000000000000A7
:100F4A000052505357656C636F6D6520746F205063
:100F5A00535221204D6F766520746F20737461722D
:100F6A0074000056696577207475746F7269616CD4
:100F7A003F000003800340032000800310526F6388
:100F8A006B00005061706572000053636973736F80
:100F9A0072730000010507205F050000000000C60B
:100FAA00186380014A290000004A7DF59502C4179A
:100FBA00471F01632222320626155193058608002F
:100FCA00000088082108028220848800805457097A
:100FDA000080904F0800000060880000800F000029
:100FEA000000008C0100222202002EE63AA303C46C
:100FFA00104288032E4244C4072E4207A30388A93D
:10100A00F411023F8407A3032E8617A3033F424429
:10101A0008012E4617A3032E460FA303C018600C1F
:10102A0000C0186088008888200802007CF001004F
:10103A0082208888002E424400012E425BAB034482
:10104A00C51F63042FC617E3032E8610A2032FC6FB
:10105A0018E3033F8417C2073F841742002E861EF7
:10106A00A30731C61F63048E10428803104218A3D7
:10107A00033195515204218410C20771D71A6304AF
:10108A0071D61C63042EC618A3032FC61742002E5E
:10109A00C65893052FC61763042E0607A3039F108D
:1010AA0042080131C618A30331C618150131C65AC0
:1010BA00AB02312AA26204312A4208011F2222C24B
:1010CA0007278410C20120088220000E2184900381
:1010DA004445000000000000C00782200000000014
:1010EA0038E8A30721B419E30300B810A20310DA01
:1010FA001CA30700B8F883034C8A238400C0C7E8FE
:10110A00A10321B4196304041842880308308492A5
:10111A000121A4324A02861042880300AC5A6304B1
:10112A0000B419630400B818A30300BCF842000015
:10113A00D8EC210400B419420000B8E0E003421CD4
:10114A0021240300C418B30500C418150100C45AA9
:10115A00AB02004445540400C4E8A103007C44C423
:10116A00078810410802841042080182104488004E
:10117A0000888A00000340008003100380032000D7
:0E118A004000200010000800040002000100D8
:00000001FF
