:100000000C943A000C9457000C9457000C94570031
:100010000C9457000C9457000C9457000C94570004
:100020000C9457000C9457000C9457000C945700F4
:100030000C9457000C9457000C9457000C945700E4
:100040000C9457000C9457000C9457000C945700D4
:100050000C9457000C9457000C9457000C945700C4
:100060000C9457000C9457000C9457000C945700B4
:100070000C94570011241FBECFEFD4E0DEBFCDBFDC
:1000800013E0A0E0B1E0ECE9F1E102C005900D92CF
:10009000A639B107D9F723E0A6E9B3E001C01D9264
:1000A000AB3AB207E1F70E9437080C94CC080C94E5
:1000B00000003A9A579808954F9B02C0429AFCCF8D
:1000C0004298FACFCF93DF9300D01F92CDB7DEB71F
:1000D0008091310190913201A091330189839A83FB
:1000E000AB8300E010E083E0C82ED12C0E942D01EC
:1000F0000E94A30181E00E947101E12EF12C811187
:1001000002C0013029F40E942502C70101960BC0EC
:1001100083E00E947101811102C0023049F40E9403
:100120002502C7010296B6010E948708182F00E039
:10013000E1E0F0E0EC0FFD1FE10FF11D8081803563
:1001400019F40E94550209C0823519F40E94AB02CD
:1001500004C0833559F60E94E702082FC7CF0E94DA
:10016000FE000E94250284EF91E00E940E010E9491
:1001700059000E940F020C944B04CF93DF9300D0E0
:10018000CDB7DEB784E391E00E94560483E591E0A9
:100190000E94560489E589838EE48A8362E0CE0159
:1001A00001960E948704893511F40E94CB040F90B8
:1001B0000F90DF91CF910895CF93DF9300D000D0BF
:1001C00000D0CDB7DEB783E691E00E94560486E00A
:1001D000E5E7F1E0DE01119601900D928A95E1F7D5
:1001E00066E0CE0101960E94870426960FB6F89429
:1001F000DEBF0FBECDBFDF91CF910895E1E6F0E005
:1002000080E880831082A89584B7877F84BFE0E66A
:10021000F0E080818861808310820895BC01109293
:10022000800085E0809381001092820084EF91E04D
:100230000E94730880E090E024E83EE140E050E056
:100240000E945A0828EE33E040E050E00E949B08EC
:10025000309397032093960308958091960390918D
:100260009703209184003091850028173907C8F33F
:10027000109285001092840008956230710519F182
:1002800070F46130710559F5FC01FF2724A1392F65
:100290003095922F932394A385A183231DC06330AF
:1002A000710541F064307105D1F4FC01FF2784A190
:1002B000892B0FC0FC01FF2784A1892B84A385A172
:1002C0009095892309C0FC01FF2784A1292F20953F
:1002D000822384A385A1892B85A381E0089580E0F2
:1002E0000895E82FF0E0EE0FFF1FE856FC4F8081E5
:1002F000882321F0918181E0892702C080E090E08D
:1003000081700895E82FF0E0EE0FFF1FE856FC4FD4
:100310008081811102C0818102C080E090E0817003
:100320000895E82FF0E0EE0FFF1FE856FC4F8081A4
:100330000895E82FF0E0EE0FFF1FE856FC4F908184
:1003400081E0892708957F928F929F92AF92BF920A
:10035000CF92DF92EF92FF920F931F93CF93DF9391
:10036000C8E9D3E05BE7C52E51E0D52E66E0762ED6
:1003700088818983F601019111916F015801BB2495
:10038000F50124A1E12EFF2485A190E08E219F217B
:1003900030E02E213F21232B31F0892B51F433E023
:1003A000832E912C0DC0892B41F488248394912CA9
:1003B00007C094E0892E912C03C082E0882E912CF6
:1003C00064E070E0C8010E943D0162E070E0C80195
:1003D0000E943D01872D8A95F1F7F50183A190E0F8
:1003E000E822F92281E0EF2809F080E08883B40157
:1003F000C8010E943D012296F3E0C23ADF0709F0EE
:10040000B7CFDF91CF911F910F91FF90EF90DF90C9
:10041000CF90BF90AF909F908F907F900895089558
:100420009C01FC01FF2795A1832F8095892385A33B
:1004300008959C01FC01FF2784A1832B84A395A12F
:10044000892F832B85A381E0089580E090E40E94AA
:10045000190280E090E20E94190280E090E10E947F
:10046000190280E098E00E94190280E094E00E9466
:10047000190280E092E00E94190280E091E00E945F
:10048000190283E090E40E94190280E090E80E9443
:10049000190283E090E10E94190283E090E80E9433
:1004A000190283E090E20C941902CF93DF93C0E02D
:1004B000D0E00E942D010E9425020E94A30183E04A
:1004C0000E947101811141C081E00E94710181117E
:1004D0003EC080E090E4CD2B29F50E94100280E020
:1004E00090E20E94100280E090E10E94100280E001
:1004F00098E00E94100280E094E00E94100280E0E8
:1005000092E00E94100280E091E00E94100283E0DD
:1005100090E40E94100283E090E20E941002C1E089
:10052000D0E0C7CF0E94100280E091E00E9410024C
:1005300080E090E80E94100283E090E10E941002A7
:1005400083E090E80E941002B2CF81E001C082E017
:10055000DF91CF910895CF93DF93C0E0D0E00E9468
:100560002D010E9425020E94A30183E00E947101D7
:10057000811127C081E00E947101811124C0CD2B1F
:1005800099F480E090E10E94100280E098E00E94DF
:10059000100280E094E00E94100283E090E10E944B
:1005A0001002C1E0D0E0DBCF80E098E00E941002B2
:1005B00080E090E80E94100283E090E80E94100220
:1005C000CCCF81E001C082E0DF91CF910895CF933D
:1005D000DF93C0E0D0E00E942D010E9425020E941E
:1005E000A30183E00E947101811148C081E00E9453
:1005F0007101811145C02097D9F480E090E20E94FA
:10060000100280E094E00E94100280E092E00E94DC
:10061000100280E091E00E94100283E090E40E94CA
:10062000100283E090E20E941002C1E0D0E0D3CF3C
:100630002197B9F480E090E10E94100280E094E0FC
:100640000E94100280E092E00E94100280E090E898
:100650000E94100283E090E80E941002C2E0D0E005
:10066000BACF80E098E00E94100280E094E00E94FF
:10067000100283E090E10E941002ABCF81E001C044
:1006800082E0DF91CF910895CF93DF93C0E0D0E077
:100690000E942D010E9425020E94A30183E00E9476
:1006A0007101811148C081E00E947101811145C032
:1006B000209719F580E090E40E94100280E090E21B
:1006C0000E94100280E090E10E94100280E098E019
:1006D0000E94100280E094E00E94100280E092E00C
:1006E0000E94100280E091E00E94100283E090E1FD
:1006F0000E941002C1E0D0E0CBCF219779F480E0D6
:1007000090E20E94100280E090E80E94100283E0D4
:1007100090E80E941002C2E0D0E0BACF80E090E101
:100720000E94100283E090E40E94100283E090E2B5
:100730000E941002ABCF81E001C082E0DF91CF9137
:100740000895CF93DF93C0E0D0E00E942D010E9476
:1007500025020E94A30183E00E947101811140C023
:1007600081E00E94710181113DC02097D9F480E0A1
:1007700098E00E94100283E090E40E94100280E062
:1007800090E80E94100283E090E10E94100283E052
:1007900090E80E94100283E090E20E941002C1E003
:1007A000D0E0D3CF219779F480E090E10E9410024D
:1007B00080E094E00E94100283E090E80E94100222
:1007C000C2E0D0E0C2CF80E090E20E94100280E060
:1007D00092E00E94100283E090E10E941002B3CFE9
:1007E00081E001C082E0DF91CF910895CF93DF9344
:1007F000C0E0D0E00E942D010E9425020E94A301CA
:1008000083E00E947101811140C081E00E9471016A
:1008100081113DC02097D9F480E098E00E94100239
:1008200083E090E40E94100280E090E80E941002B1
:1008300083E090E10E94100283E090E80E941002A1
:1008400083E090E20E941002C1E0D0E0D3CF219774
:1008500079F480E090E10E94100280E094E00E9430
:10086000100280E090E80E941002C2E0D0E0C2CF07
:1008700080E090E20E94100280E092E00E9410026C
:1008800083E090E10E941002B3CF81E001C082E0DA
:10089000DF91CF91089584EF91E00E9427088CE9C1
:1008A00091E00E94A6078AE00C9496070E948707B1
:1008B00081E090E00E949C070E942D010E94A3010C
:1008C00083E00E94710181110C948B0681E00E94EB
:1008D00071018111F9CF82E00E9471018111F4CF81
:1008E0000E9471018111F0CF0E94AB07E5CFCF9339
:1008F000DF9300D0CDB7DEB789831A82CE0101968F
:100900000E9487070F900F90DF91CF910895CF92AB
:10091000DF92EF92FF920F931F93CF936C01C0E091
:10092000E62EF12C0E942D010E94AB070E94A3012C
:1009300081E00E9471010C2F10E0882329F00E94B1
:100940002502C80101960BC083E00E947101882333
:1009500051F00E942502C80101978E0D9F1DB7011D
:100960000E948708C82F86010C0F111DF801808195
:100970000E94770484E00E947101882399F20E940A
:100980002502F8018081CF911F910F91FF90EF9088
:10099000DF90CF90089585E891E00E9456040E9470
:1009A000AB020E9444038BE891E00E9456040E942F
:1009B000A1030E94550282E991E00E9456040E9420
:1009C000F6030C94E702853098F4673088F421E050
:1009D00030E001C0220F6A95EAF7E82FF0E0ED550C
:1009E000FC4F922F9095808189234111822B808327
:1009F0000895853080F4673070F421E030E001C064
:100A0000220F6A95EAF7E82FF0E0ED55FC4F808160
:100A1000282381E009F480E008956091A203E62F85
:100A2000F0E0ED55FC4F80810E945B058091A203B0
:100A30008F5F853018F48093A20308951092A2036B
:100A40000895E3EAF3E01082118212821382148285
:100A500008950E9439050C9421059C01FC01FF2793
:100A600084A1832B84A395A1892F832B85A381E067
:100A70000895CF93DF93C7E8D3E0899199910E94BD
:100A80002D0583E0C539D807C1F783E090E40E94C3
:100A90002D0580E090E80E942D0583E090E10E9402
:100AA0002D0583E090E80E942D0583E090E2DF9120
:100AB000CF910C942D05E091A803F0E0EE0FFF1FFD
:100AC000E358FC4F20813181F901FF2795A1932B39
:100AD00095A3E7E8F3E097E020813181D901BB27B6
:100AE00095962C91959780FF03C03095232301C0E4
:100AF000232B95962C938695915032969111ECCF9D
:100B0000E62FF0E0EE0FFF1FE358FC4F808191814C
:100B1000FC01FF2785A19095892385A36093A803F5
:100B20000895009789F0FC012381621B67FD09C0CD
:100B3000062E000C770B248130E081E062177307EA
:100B40000CF080E08170089580E00895CF93DF93EA
:100B5000FC01892B79F18181481760F59281291771
:100B600048F59381A62FA91BA7FD24C00A2E000CCF
:100B7000BB0BC481D0E0AC17BD07E4F4622F0E9428
:100B80004008480F858190E0BD010E944908069603
:100B9000242F269526952695E80FF91FE20FF11DC3
:100BA000808190E0477002C0959587954A95E2F75D
:100BB000817001C080E0DF91CF910895692F0C947E
:100BC000F90441E0611101C040E0692F0C94E30495
:100BD0000C94E1055F926F927F928F929F92AF92F9
:100BE000BF92CF92DF92EF92FF920F931F93CF931A
:100BF000DF93562E872E942E5C01E62EF72EC62FFD
:100C0000660FDD0BC81BD10987FDD395072F770F22
:100C1000110B091B110997FD1395D7FF03C077240A
:100C20007A9402C07724739417FF03C066246A94F1
:100C300002C066246394D7FF03C0D195C195D10942
:100C400017FF03C0119501951109C017D107A4F032
:100C50006E01D594C794F92EA51411F1692D8A2D32
:100C60009F2D0E94E105C01AD10AD7FE03C0CC0E09
:100C7000DD1EF60CA70CF0CF6801D594C794E82EC2
:100C8000B81471F0692D8E2D9B2D0E94E105CC1AB0
:100C9000DD0AD7FE03C0C00ED11EE70CB60CF0CFA4
:100CA000692DC701DF91CF911F910F91FF90EF90B8
:100CB000DF90CF90BF90AF909F908F907F906F907C
:100CC0005F900C94E105FF920F931F93CF93DF93F6
:100CD000D82FF92E162FC72F042F792F0E94EA053F
:100CE000402F6D2F7C2F8D2F9F2D0E94EA05402FC6
:100CF000612F7C2F812F9F2D0E94EA05402F612FAD
:100D00007C2F8D2F9C2F0E94EA05DF91CF911F91A0
:100D10000F91FF9008950E942105E0E0F1E0118A13
:100D200014860895DF92EF92FF920F931F93CF9353
:100D3000DF93D82E7B01162F0F2D80910201909109
:100D40000301D0E0019799F50F2D0D1BE0910801EB
:100D5000F09109018181C0E0D817B8F480910801B1
:100D600090910901FC012281C21768F42C2F4D2FAC
:100D70006D2D0E94A605682F8E2D8C0F902F0E943E
:100D8000E105CF5FEBCFDF5FDFCFE0910801F091AE
:100D900009018281C81740F460E08E2D8C0F902FDE
:100DA0000E94E105CF5FF1CF015030C0DF5F1E2D03
:100DB0001D0FE0910801F09109018181C0E0D81771
:100DC000A8F48091080190910901FC012281C217C9
:100DD00068F72C2F4D2F6D2D0E94A605682F812FAF
:100DE0009F2D9C0F0E94E105CF5FEBCFE0910801A2
:100DF000F09109018281C81740F460E0812F9F2D96
:100E00009C0F0E94E105CF5FF1CF1F5F812F902FD4
:100E1000DF91CF911F910F91FF90EF90DF90089598
:100E20000F931F93CF938C01C0E0F80181918F0144
:100E3000882341F00E949206BC01CF5F853014F4F4
:100E400077FFF3CF8C2FCF911F910F9108950F93C0
:100E50001F93CF93DF9310920C0140930D011092DA
:100E6000100100910801109109010115110509F403
:100E700049C09B01EC01F8018181609106017091EC
:100E8000070190E00E944908BC0180910A019091FD
:100E90000B010E947308CB016AE070E00E944908D0
:100EA00090930F0180930E0130930501209304016C
:100EB00040E250E0BE0181E191E00E94BD088091D6
:100EC0000001909101010197E9F4FE0101900020D9
:100ED000E9F73197BF016C1B7D0BF80181818F5FB2
:100EE0000E9440088150209102013091030121307D
:100EF000310511F095E001C097E0981718F48EEFD6
:100F000080931001DF91CF911F910F91089520914F
:100F10000201309103012130310511F070E001C070
:100F200076E04FEF60E00E942707089590E09093ED
:100F300007018093060108959093010180930001B9
:100F400008959093030180930201089590930901FD
:100F50008093080108958091A9039091AA030196B6
:100F60009093AA038093A90320910E0130910F0161
:100F70008217930708F469C01092AA031092A9037C
:100F8000E0910C01F0E0E050FF4F818981110AC02F
:100F900080910D01823008F458C0815080930D017A
:100FA00010920C0180910C0190E0FC01E050FF4F89
:100FB0002189222309F449C0409100015091010187
:100FC000209110014115510521F04130510599F052
:100FD00024C0211122C060910401709105018F5E2F
:100FE0009E4F0E94100790E0019790910C01890F8D
:100FF00080930C0112C06091040170910501409131
:101000000201509103014130510511F4720F01C0EA
:10101000621B8F5E9E4F0E941007809110018F5FB0
:1010200080931001082E000C990BE0910801F091BB
:101030000901218130E0281739073CF41092100192
:1010400080910C018F5F80930C010C940D05CF9360
:10105000DF93C0E0D1E09B878A870E94290584E165
:1010600090E09F838E83DF91CF910C948B060E943A
:10107000AF000E94BD000E94DC0080E090E0089577
:10108000002480FD060E660F11F08695D1F7802DA5
:1010900008950024552704C0080E591F880F991F72
:1010A000009729F076956795B8F37105B9F7802D0B
:1010B000952F0895EE27FF27AA27BB2708C0A20F68
:1010C000B31FE41FF51F220F331F441F551F9695B2
:1010D00087957795679598F37040A9F7009799F7EA
:1010E000BD01CF010895AA1BBB1B51E107C0AA1F78
:1010F000BB1FA617B70710F0A61BB70B881F991FB9
:101100005A95A9F780959095BC01CD01089597FB5C
:10111000072E16F4009407D077FD09D00E947308BB
:1011200007FC05D03EF4909581959F4F08957095EA
:1011300061957F4F0895A1E21A2EAA1BBB1BFD01EA
:101140000DC0AA1FBB1FEE1FFF1FA217B307E407A6
:10115000F50720F0A21BB30BE40BF50B661F771FFE
:10116000881F991F1A9469F76095709580959095DE
:101170009B01AC01BD01CF010895FB01DC01415091
:10118000504048F001900D920020C9F701C01D9217
:0C11900041505040E0F70895F894FFCF64
:10119C00000000000000140000000000000000002F
:1011AC000000000000000000000000000000000033
:1011BC000000000000000000000000000000000023
:1011CC000052505357656C636F6D6520746F2050DF
:1011DC00535221204D6F766520746F2073746172A9
:1011EC0074000056696577207475746F7269616C50
:1011FC003F0000486F77206D616E7920726F756EBD
:10120C0064733F00003133353739310380034003B9
:10121C002000800310526F636B0000506170657288
:10122C00000053636973736F72730000010507202C
:10123C005F050000000000C6186380014A29000009
:10124C00004A7DF59502C417471F0163222232061E
:10125C002615519305860800000088082108028293
:10126C0020848800805457090080904F08000000AB
:10127C0060880000800F00000000008C010022221A
:10128C0002002EE63AA303C4104288032E4244C443
:10129C00072E4207A30388A9F411023F8407A30376
:1012AC002E8617A3033F424408012E4617A3032E94
:1012BC00460FA303C018600C00C018608800888813
:1012CC00200802007CF0010082208888002E424415
:1012DC0000012E425BAB0344C51F63042FC617E30A
:1012EC00032E8610A2032FC618E3033F8417C207F0
:1012FC003F841742002E861EA30731C61F63048E3F
:10130C0010428803104218A30331955152042184D2
:10131C0010C20771D71A630471D61C63042EC61849
:10132C00A3032FC61742002EC65893052FC617636A
:10133C00042E0607A3039F1042080131C618A3030D
:10134C0031C618150131C65AAB02312AA2620431DA
:10135C002A4208011F2222C207278410C20120083A
:10136C008220000E21849003444500000000000000
:10137C00C00782200000000038E8A30721B419E35D
:10138C000300B810A20310DA1CA30700B8F88303FB
:10139C004C8A238400C0C7E8A10321B41963040458
:1013AC0018428803083084920121A4324A02861024
:1013BC0042880300AC5A630400B419630400B818E3
:1013CC00A30300BCF8420000D8EC210400B419427D
:1013DC000000B8E0E003421C21240300C418B3054C
:1013EC0000C418150100C45AAB0200444554040053
:1013FC00C4E8A103007C44C407881041080284108F
:10140C00420801821044880000888A0000034000D2
:10141C00800310038003200040002000100008000F
:06142C00040002000100B3
:00000001FF
