:100000000C943A000C9457000C9457000C94570031
:100010000C9457000C9457000C9457000C94570004
:100020000C9457000C9457000C9457000C945700F4
:100030000C9457000C9457000C9457000C945700E4
:100040000C9457000C9457000C9457000C945700D4
:100050000C9457000C9457000C9457000C945700C4
:100060000C9457000C9457000C9457000C945700B4
:100070000C94570011241FBECFEFD4E0DEBFCDBFDC
:1000800011E0A0E0B1E0EEEDF5E002C005900D92C8
:10009000AE30B107D9F721E0AEE0B1E001C01D926A
:1000A000AA31B207E1F70E942F020C94ED020C94E2
:1000B00000009C01FC01FF2795A1832F80958923D7
:1000C00085A308959C01FC01FF2784A1832B84A3B1
:1000D00095A1892F832B85A381E0089580E090E48A
:1000E0000E94620080E090E20E94620080E090E165
:1000F0000E94620080E098E00E94620080E094E04C
:100100000E94620080E092E00E94620080E091E044
:100110000E94620083E090E40E94620080E090E828
:100120000E94620083E090E10E94620083E090E818
:100130000E94620083E090E20C946200CF93DF9310
:10014000C0E0D0E00E944C010E946E000E94C201FB
:1001500083E00E949001811131C081E00E949001F2
:1001600081112EC080E090E2CD2BE9F40E9459006D
:1001700080E090E80E94590080E090E10E945900E0
:1001800080E098E00E94590080E094E00E945900CD
:1001900080E092E00E94590083E090E80E945900BC
:1001A000C1E0D0E0CFCF0E94590080E092E00E94F1
:1001B000590083E090E10E945900C2CF81E001C064
:1001C00082E0DF91CF9108950E946E0080E098E078
:1001D0000E94590080E094E00E94590080E092E083
:1001E0000E94590080E090E80E94590083E090E16D
:1001F0000E94590083E090E80C9459000E946E0020
:1002000080E098E00E94590080E094E00E9459004C
:1002100080E090E80E94590083E090E10E9459003C
:1002200083E090E80C9459003A9A579808954F9BB0
:1002300002C0429AFCCF4298FACFE1E6F0E080E8B3
:1002400080831082A89584B7877F84BFE0E6F0E0C2
:1002500080818861808310820895BC0110928000A3
:1002600085E0809381001092820084EF91E00E94EB
:10027000A30280E090E024E83EE140E050E00E94EC
:100280008A0228EE33E040E050E00E94CB02309337
:100290000F0120930E01089580910E0190910F019E
:1002A000209184003091850028173907C8F31092F7
:1002B00085001092840008956230710519F170F480
:1002C0006130710559F5FC01FF2724A1392F3095C4
:1002D000922F932394A385A183231DC063307105BE
:1002E00041F064307105D1F4FC01FF2784A1892B12
:1002F0000FC0FC01FF2784A1892B84A385A19095C1
:10030000892309C0FC01FF2784A1292F209582237E
:1003100084A385A1892B85A381E0089580E00895B9
:10032000E82FF0E0EE0FFF1FE05FFE4F8081882393
:1003300021F0918181E0892702C080E090E0817006
:100340000895E82FF0E0EE0FFF1FE05FFE4F808181
:10035000811102C0818102C080E090E08170089527
:10036000E82FF0E0EE0FFF1FE05FFE4F8081089561
:10037000E82FF0E0EE0FFF1FE05FFE4F908181E07D
:10038000892708957F928F929F92AF92BF92CF92CA
:10039000DF92EF92FF920F931F93CF93DF93C0E111
:1003A000D1E053E0C52E51E0D52E66E0762E88814F
:1003B0008983F601019111916F015801BB24F50168
:1003C00024A1E12EFF2485A190E08E219F2130E021
:1003D0002E213F21232B31F0892B51F433E0832E42
:1003E000912C0DC0892B41F488248394912C07C053
:1003F00094E0892E912C03C082E0882E912C64E039
:1004000070E0C8010E945C0162E070E0C8010E94D7
:100410005C01872D8A95F1F7F50183A190E0E82230
:10042000F92281E0EF2809F080E08883B401C80157
:100430000E945C012296F1E0CA31DF0709F0B7CFD4
:10044000DF91CF911F910F91FF90EF90DF90CF90B0
:10045000BF90AF909F908F907F9008950895CF9315
:10046000DF9300D01F92CDB7DEB70E941D010E941E
:100470006E0084EF91E00E942D010E9414010E9401
:100480002E028091000190910101A09102018983C7
:100490009A83AB8300E010E083E0C82ED12C0E9449
:1004A0004C010E94C20181E00E949001E12EF12CDA
:1004B000811102C0013029F40E946E00C70101962B
:1004C0000BC083E00E949001811102C0023049F408
:1004D0000E946E00C7010296B6010E94B702182F53
:1004E00000E0E1E0F0E0EC0FFD1FE10FF11D808185
:1004F000803521F40E949E00082FD1CF823519F457
:100500000E94E400CCCF833551F60E94C2010E94C4
:10051000FE00C5CFEE27FF27AA27BB2708C0A20FE2
:10052000B31FE41FF51F220F331F441F551F96955D
:1005300087957795679598F37040A9F7009799F795
:10054000BD01CF010895AA1BBB1B51E107C0AA1F23
:10055000BB1FA617B70710F0A61BB70B881F991F64
:100560005A95A9F780959095BC01CD01089597FB08
:10057000072E16F4009407D077FD09D00E94A3023D
:1005800007FC05D03EF4909581959F4F0895709596
:1005900061957F4F0895A1E21A2EAA1BBB1BFD0196
:1005A0000DC0AA1FBB1FEE1FFF1FA217B307E40752
:1005B000F50720F0A21BB30BE40BF50B661F771FAA
:1005C000881F991F1A9469F760957095809590958A
:0E05D0009B01AC01BD01CF010895F894FFCF4F
:0E05DE0052505303800340032000800310009E
:00000001FF
